:020000040800F2
:100000000804002095060008FD060008FD0600080B
:10001000FD060008FD060008FD06000800000000BF
:10002000000000000000000000000000FD060008C5
:10003000FD06000800000000FD060008FD0600089F
:10004000FD060008FD060008FD060008FD06000884
:10005000FD060008FD060008FD060008FD06000874
:10006000FD060008FD060008FD060008FD06000864
:10007000FD060008FD060008FD060008FD06000854
:10008000FD060008FD060008FD060008FD06000844
:10009000FD060008FD060008FD060008FD06000834
:1000A000FD060008FD060008FD060008FD06000824
:1000B0005D050008FD060008FD060008FD060008B5
:1000C000FD060008FD060008FD060008FD06000804
:1000D000FD060008FD060008FD060008FD060008F4
:1000E000FD060008FD060008FD06000800000000EF
:1000F0000000000000000000000000000000000000
:100100000000000000000000FD060008FD060008D9
:10011000FD060008FD060008FD060008FD060008B3
:10012000FD060008FD060008FD060008FD060008A3
:10013000FD060008FD060008FD060008FD06000893
:10014000FD060008FD060008FD060008FD06000883
:100150005FF808F180B500AF1A4B1A4A126842F0F6
:1001600001021A60174A174B5968174B01EA03033B
:100170005360144A134B1B6823F0847323F48033B9
:100180001360104B0F4A126822F480221A600D4B44
:100190000C4A526822F4FE025A600A4B094A12685D
:1001A00022F0A0521A60074B4FF47F029A60054B71
:1001B0004FF00002DA6200F00BF8044B4FF00062DF
:1001C0009A6080BD001002400000FFF000ED00E0EA
:1001D00080B500AF00F002F880BD00BF80B483B0EE
:1001E00000AF4FF000037B604FF000033B60494BD2
:1001F000484A126842F480321A60464B1B6803F486
:1002000000333B607B6803F101037B603B68002B9C
:1002100003D17B68B3F5A06FEFD13E4B1B6803F4AD
:100220000033002B03D04FF001033B6002E04FF09E
:1002300000033B603B68012B67D1374B364A12689D
:1002400042F010021A60344B334A126822F0030263
:100250001A60314B304A126842F002021A602D4B8C
:100260002C4A52685A602B4B2A4A52685A60294BD2
:10027000284A526842F480625A60264A254BD96A5D
:10028000264B01EA0303D362224A224BDB6A43F482
:10029000823343F41173D3621E4B1E4A126842F03C
:1002A00080621A6000BF1B4B1B6803F00063002BC9
:1002B000F9D0184B174A526822F47C125A60154B39
:1002C000144A526842F4E8125A60124B114A1268FA
:1002D00042F080721A6000BF0E4B1B6803F000737F
:1002E000002BF9D00B4B0B4A526822F003025A60E4
:1002F000084B084A526842F002025A6000BF054BA0
:100300005B6803F00C03082BF9D107F10C07BD461D
:1003100080BC7047001002400020024000F0FEFF49
:1003200080B489B000AF786039604FF00003FB61A2
:100330004FF000033B614FF00003BB614FF000033F
:10034000FB604FF000037B614FF00003BB603B6834
:10035000DB7803F00F03FB613B68DB7803F01003ED
:10036000002B05D03B689B78FA6942EA0303FB61E6
:100370003B681B8803F0FF03002B51D07B681B6890
:100380007B614FF00003BB6144E0BB694FF00102A9
:1003900002FA03F3FB603B681B881A46FB6802EA1B
:1003A00003033B613A69FB689A422FD1BB694FEA6C
:1003B0008303FB60FB684FF00F0202FA03F3BB609C
:1003C000BB686FEA03037A6902EA03037B61FB6897
:1003D000FA6902FA03F37A6942EA03037B613B6834
:1003E000DB78282B07D1BB694FF0010202FA03F238
:1003F0007B685A610AE03B68DB78482B06D1BB6911
:100400004FF0010202FA03F27B681A61BB6903F143
:100410000103BB61BB69072BB7D97B687A691A6096
:100420003B681B88FF2B56D97B685B687B614FF06C
:100430000003BB6149E0BB6903F108034FF001020F
:1004400002FA03F3FB603B681B881A46FB6802EA6A
:1004500003033B613A69FB689A4232D1BB694FEAB8
:100460008303FB60FB684FF00F0202FA03F3BB60EB
:10047000BB686FEA03037A6902EA03037B61FB68E6
:10048000FA6902FA03F37A6942EA03037B613B6883
:10049000DB78282B08D1BB6903F108034FF0010278
:1004A00002FA03F27B685A613B68DB78482B08D17B
:1004B000BB6903F108034FF0010202FA03F27B6803
:1004C0001A61BB6903F10103BB61BB69072BB2D998
:1004D0007B687A695A6007F12407BD4680BC704783
:1004E00080B400AF62B6BD4680BC704780B483B0B4
:1004F00000AF0346FB71094B97F907204FEA5212F0
:10050000F97901F01F014FF0010000FA01F143F801
:10051000221007F10C07BD4680BC704700E100E0E7
:1005200080B582B000AF4FF010004FF0010100F035
:100530008FF84FF03803BB804FF01003FB714FF082
:100540000203BB7107F1040303481946FFF7E8FEF5
:1005500007F10807BD4680BD0010014080B400AF20
:100560004FF080434FF08042128A92B222F0010293
:1005700092B21A820F4B0F4AD26822F02002DA6040
:100580000D4B4FF000021A6005E00B4B1B6803F1A6
:100590000102094B1A60084B1A68084B9A42F4DDB5
:1005A000044B044AD26842F02002DA60BD4680BCA7
:1005B000704700BF00100140000000209F8601002E
:1005C00080B400AF134B134AD26942F00102DA61E2
:1005D0004FF080434EF660229A854FF080434FF4EF
:1005E00016721A854FF080434FF08042128892B203
:1005F00042F0010292B21A804FF080434FF08042E5
:10060000928992B242F0010292B29A81BD4680BCB8
:10061000704700BF0010024080B500AFFFF780FFB9
:100620000A4B0A4AD26842F03802DA60FFF758FFF4
:100630004FF01C00FFF75AFFFFF7C2FF034B034ABE
:10064000D26822F00802DA60FEE700BF0010014025
:1006500080B483B000AF78600B46FB70FB78002B52
:1006600007D00B4B0A4A91697A6841EA02029A6103
:1006700008E0074B064A91697A686FEA020201EACC
:1006800002029A6107F10C07BD4680BC704700BFAB
:100690000010024080B582B000AF134B7B60134B5B
:1006A0003B600BE07B681A683B681A603B6803F1AB
:1006B00004033B607B6803F104037B603A680C4BE6
:1006C0009A42EFD30B480C494FF000028842B8BF62
:1006D00040F8042BFADBFFF73DFDFFF79DFF07F124
:1006E0000807BD4680BD00BF0407000800000020C9
:1006F00000000020000000200400002080B400AFB3
:04070000FEE700BF51
:0400000508000000EF
:00000001FF
