:020000040800F2
:1000000004040020A90500084D0600084D0600085C
:100010004D0600084D0600084D06000800000000CF
:100020000000000000000000000000004D06000875
:100030004D060008000000004D0600084D060008AF
:100040004D0600084D0600084D0600084D06000844
:100050004D0600084D0600084D0600084D06000834
:100060004D0600084D0600084D0600084D06000824
:100070004D0600084D0600084D0600084D06000814
:100080004D0600084D0600084D0600084D06000804
:100090004D0600084D0600084D0600084D060008F4
:1000A0004D0600084D0600084D0600084D060008E4
:1000B0004D0600084D0600084D0600084D060008D4
:1000C0004D0600084D0600084D0600084D060008C4
:1000D0004D0600084D0600084D0600084D060008B4
:1000E0004D0600084D0600084D06000800000000FF
:1000F0000000000000000000000000000000000000
:1001000000000000000000004D0600084D06000839
:100110004D0600084D0600084D0600084D06000873
:100120004D0600084D0600084D0600084D06000863
:100130004D0600084D0600084D0600084D06000853
:100140004D0600084D0600084D0600084D06000843
:100150005FF808F14C4B10B418684C4A40F00100AD
:1001600018605868002100EA02025A60186883B0DB
:1001700020F0847C2CF48030186018681A4620F433
:1001800080201860586820F4FE005860186820F03D
:10019000A05018604FF47F009860D96201910091DF
:1001A000186840F48031196003E00198B0F5A06F41
:1001B00009D0116801F4003300930198411C0191AA
:1001C000009B002BF1D0304B1A6812F400330BD097
:1001D00001210091009801280AD02D4B4FF00061B9
:1001E000996003B010BC7047009300980128F4D1C7
:1001F000284A254B1468284844F0100111601468FF
:10020000194624F003041460146844F002041460D6
:100210005A685A605A685A605A6842F480625A6052
:10022000DA6A0240DA62D86A40F4823C4CF4117215
:10023000DA62186840F080621A600B68124A13F0A4
:10024000006FFAD05368114623F47C105060536855
:1002500043F4E8105060136843F080701060086841
:10026000094A10F0007FFAD05068114620F00303CD
:100270005360506840F0020353604A6802F00C0C6F
:10028000BCF1080FF9D1A8E7001002400000FFF010
:1002900000ED00E00020024000F0FEFFCB7830B41B
:1002A00013F0100F18BF8A7803F00F0418BF14431F
:1002B0000A8812F0FF0F29D002F001050168002D15
:1002C00040F0DD8002F00205002D40F0C28002F017
:1002D0000405002D40F0C88002F00805002D40F014
:1002E0008C8002F01005002D40F0928002F0200575
:1002F000002D40F0988002F04005002D40F09E80D7
:1003000002F08005002D40F0C5800160FF2A20D951
:1003100002F480754168002D26D102F40075002D8D
:100320002DD102F48065002D34D102F40065002D3A
:100330003BD102F48055002D41D102F40055002D2F
:1003400047D102F48045002D4DD102F4004212B98C
:10035000416030BC7047282B64F31F7100F0B080FF
:10036000482B08BF0261F3E721F00F0C282B44EA69
:100370000C0100F0A380482BCFD10561CDE721F01F
:10038000F001282B41EA041100F09680482BC8D1D7
:100390000561C6E721F4706C282B4CEA042100F0BB
:1003A0008980482BC1D10561BFE721F47041282B1A
:1003B00041EA04317CD0482BBBD10561B9E721F477
:1003C000702C282B4CEA044170D0482BB5D1056124
:1003D000B3E721F47001282B41EA045164D0482B83
:1003E000AFD10561ADE721F0706C282B4CEA0461B8
:1003F00058D0482BA9D10561A7E721F4704C282BD0
:100400004CEA043168D0482B7FF46BAF056168E794
:1004100021F47021282B41EA04415BD0482B7FF462
:1004200065AF056162E721F4700C282B4CEA04519A
:1004300056D0482B7FF45FAF05615CE721F0706117
:10044000282B41EA046149D0482B7FF459AF05615C
:1004500056E721F0F00C282B4CEA041138D0482B39
:100460007FF435AF056132E721F47061282B41EA52
:1004700004212BD0482B7FF42FAF05612CE721F00E
:100480000F01282B44EA01011CD0482B7FF41AAF3E
:10049000056117E7282B64F31F7115D0482B08BF9F
:1004A000056132E7456150E745614AE7456144E748
:1004B00045613EE7456138E7456132E745612CE734
:1004C000426145E74561FDE645611EE7456103E799
:1004D0004561FCE6456109E7456102E745610FE7D3
:1004E000456108E70AB9416170470161704700BF83
:1004F00010B51020012100F049F8214B03249C7015
:1005000038220D341F481946DC701A80FFF7C6FEEA
:100510001C4808210022FFF7E5FF1A48202100228D
:10052000FFF7E0FF174810210122FFF7DBFF164C11
:10053000043CFDD1224613481021FFF7D3FF114898
:1005400008210122FFF7CEFF22460E482021FFF7A7
:10055000C9FF0D4C043CFDD10A4810212246FFF78B
:10056000C1FF084808212246FFF7BCFF05482021AB
:100570000122FFF7B7FF044B043BFDD1C8E700BFE2
:10058000000000200010014040420F0029B9054B37
:100590009A6922EA000199617047024B9A691043F7
:1005A00098617047001002402DE9F0412249234C28
:1005B000A14232D2224D0B462A4652F8046BC84360
:1005C00043F8046B2018A342C0F3810025D298B1F0
:1005D00001280BD0022805D0106805F10802186028
:1005E00001F1080352F8041B43F8041B52F8040BF2
:1005F00043F8040BA34210D294465CF8047B56687F
:10060000D568DCF80400194641F8047B5E60486058
:10061000DD6010331032A342EED30A480A494FF08E
:1006200000028842B8BF40F8042BFADBFFF792FDC6
:10063000BDE8F041FFF75CBF000000200000002093
:10064000500600080000002004000020FEE700BF64
:0400000508000000EF
:00000001FF
