:020000040800F2
:100000000008002089010008050200080502000818
:1000100005020008050200080502000800000000B3
:1000200000000000000000000000000005020008C1
:100030000502000800000000050200080502000893
:100040000502000805020008050200080502000874
:100050000502000805020008050200080502000864
:100060000502000805020008050200080502000854
:100070000502000805020008050200080502000844
:100080000502000805020008050200080502000834
:100090000502000805020008050200080502000824
:1000A0000502000805020008050200080502000814
:1000B0000502000805020008050200080502000804
:1000C00005020008050200080502000805020008F4
:1000D00005020008050200080502000805020008E4
:1000E00005020008050200080502000805020008D4
:1000F00005020008050200080502000805020008C4
:1001000005020008050200080502000805020008B3
:1001100005020008050200080502000805020008A3
:100120000502000805020008050200080502000893
:100130000502000805020008050200080502000883
:100140000502000805020008050200080502000873
:100150000502000805020008050200080502000863
:100160000502000805020008050200080502000853
:100170000502000805020008050200080502000843
:10018000050200080502000870B41949194CA14283
:1001900021D2194802460B4652F8046B43F8046B0F
:1001A000CD436519A342C5F3800514D23DB1126851
:1001B0001A6001F10803A34200F108020BD21146B4
:1001C000184651F8045B40F8045B52685A60031DFE
:1001D0000A1DA342F3D3094809494FF0000288429F
:1001E000B8BF40F8042BFADB70BC00F00DB800BFBC
:1001F0000000002000000020D003000800000020C4
:1002000000000020FEE700BF00B5092083B00121F7
:1002100000F01CF802A902224FF4624041F8080DD8
:10022000531E09488DF8043069468DF8052000F00A
:100230001BF8054B5A6942F400705861596921F462
:1002400000725A61F6E700BF000C024029B9054B65
:100250001A6B22EA000119637047024B1A6B1043B4
:10026000186370470038024000232DE9F0070A6840
:100270001C4601264FF0030C0BE0013416FA04F57E
:1002800005EA02070233AF4235D001340233102CA5
:100290005AD016FA04F505EA0207AF42EDD1D0F8BC
:1002A000009091F804800CFA03F5ED4305EA090A81
:1002B000C0F800A0D0F8009008FA03FA08F1FF385F
:1002C0005FFA88F84AEA0909B8F1010FC0F800900E
:1002D0003DD9C76891F807803D40C560C76808FAF6
:1002E00003F53D430134C56016FA04F505EA02073B
:1002F0000233AF42C9D1D0F8009091F804800CFAD3
:1003000003F5ED4305EA090AC0F800A0D0F8009013
:1003100008FA03FA08F1FF385FFA88F84AEA09098F
:10032000B8F1010FC0F8009031D9C76891F8078083
:1003300005EA0707C760C76808FA03F501343D43BB
:100340000233102CC560A4D1BDE8F0077047D0F887
:1003500008A091F8059091F8068005EA0A0AC0F80D
:1003600008A0D0F808A009FA03F949EA0A09C0F878
:100370000890D0F8049029EA07074760476808FA10
:1003800004F81FFA88F848EA07074760A1E7D0F8A1
:1003900008A091F8059091F8068005EA0A0AC0F8CD
:1003A00008A0D0F808A009FA03F949EA0A09C0F838
:1003B0000890D0F8049029EA07074760476808FAD0
:1003C00004F81FFA88F848EA07074760ADE700BF5E
:0400000508000000EF
:00000001FF
