:020000040800F2
:1000000008040020250300086D0300086D030008A4
:100010006D0300086D0300086D0300080000000078
:100020000000000000000000000000006D03000858
:100030006D030008000000006D0300086D03000858
:100040006D0300086D0300086D0300086D030008D0
:100050006D0300086D0300086D0300086D030008C0
:100060006D0300086D0300086D0300086D030008B0
:100070006D0300086D0300086D0300086D030008A0
:100080006D0300086D0300086D0300086D03000890
:100090006D0300086D0300086D0300086D03000880
:1000A0006D0300086D0300086D0300086D03000870
:1000B0006D0300086D0300086D0300086D03000860
:1000C0006D0300086D0300086D0300086D03000850
:1000D0006D0300086D0300086D0300086D03000840
:1000E0006D0300086D0300086D03000800000000A8
:1000F0000000000000000000000000000000000000
:1001000000000000000000006D0300086D030008FF
:100110006D0300086D0300086D0300086D030008FF
:100120006D0300086D0300086D0300086D030008EF
:100130006D0300086D0300086D0300086D030008DF
:100140006D0300086D0300086D0300086D030008CF
:100150005FF808F1464B82B01A6842F001021A605B
:100160005968444A01EA02025A601A6822F084720D
:1001700022F480321A601A6822F480221A605A68C7
:1001800022F4FE025A601A6822F0A0521A604FF45C
:100190007F029A600022DA62019200921A6842F4A9
:1001A00080321A60324B1A6802F400320092019ACF
:1001B00001320192009A1AB9019AB2F5A06FF1D1F9
:1001C0001B6813F4003318BF01230093009B012B1D
:1001D00048D1294B1A6842F010021A601A6822F0BE
:1001E00003021A601A6842F002021A60204B5A6831
:1001F0005A605A685A605A6842F480625A60D96AF2
:100200001E4A01EA0202DA62DA6A42F4823242F4F7
:100210001172DA621A6842F080621A60144B1A682E
:1002200012F0006FFAD05A6822F47C125A605A68B1
:1002300042F4E8125A601A6842F080721A600C4B5D
:100240001A6812F0007FFAD05A6822F003025A604E
:100250005A6842F002025A60054B5B6803F00C03D7
:10026000082BF9D1064B4FF000629A6002B070473C
:10027000001002400000FFF00020024000F0FEFFEE
:1002800000ED00E082B0002301E0019B0133019307
:10029000019B8342F9D102B070470000074BDA6935
:1002A00042F00052DA61064B1A6842F001021A600D
:1002B0001A6842F480321A60704700BF0010024092
:1002C00000740040014B1862704700BF007400408A
:1002D000014B9860704700BF0074004038B50F4C68
:1002E000FFF7DCFF0E4D238835F813000133238020
:1002F000FFF7EEFF238801339BB235F8130001337B
:100300002380FFF7DFFF2388202B02D1034B00223D
:100310001A801020FFF7B6FFECE700BF00000020B6
:100320006E03000810B50C4A0C4B03E052F8041B96
:1003300043F8041B0A498B42F8D30A480A494FF094
:1003400000028842B8BF40F8042BFADBFFF702FF37
:10035000BDE81040FFF7C2BFB00300080000002056
:10036000000000200000002004000020FEE7FF073E
:100370008F090F0B710CAA0DA60E630FD80FFF0F7C
:10038000D80F630FA60EA70D710C0F0B8F09FF0777
:100390006F06EF048D03570258019B0026000000F2
:0E03A00026009B00580157028D03EF046F06E4
:0400000508000000EF
:00000001FF
