:020000040800F2
:1000000014040020B50800081D0900081D09000897
:100010001D0900081D0900081D0900080000000056
:100020000000000000000000000000001D090008A2
:100030001D090008000000001D0900081D09000836
:100040001D0900081D0900081D0900081D090008F8
:100050001D0900081D0900081D0900081D090008E8
:100060001D0900081D0900081D0900081D090008D8
:100070001D0900081D0900081D0900081D090008C8
:100080001D0900081D0900081D0900081D090008B8
:100090001D0900081D0900081D0900081D090008A8
:1000A0001D0900081D0900081D0900081D09000898
:1000B0001D0900081D0900081D0900081D09000888
:1000C0001D0900081D0900081D0900081D09000878
:1000D0001D0900081D0900081D0900081D09000868
:1000E0001D0900081D0900081D0900080000000086
:1000F0000000000000000000000000000000000000
:1001000000000000000000001D0900081D09000893
:100110001D0900081D0900081D0900081D09000827
:100120001D0900081D0900081D0900081D09000817
:100130001D0900081D0900081D0900081D09000807
:100140001D0900081D0900081D0900081D090008F7
:100150005FF808F180B500AF1A4B1A4A126842F0F6
:1001600001021A60174A174B5968174B01EA03033B
:100170005360144A134B1B6823F0847323F48033B9
:100180001360104B0F4A126822F480221A600D4B44
:100190000C4A526822F4FE025A600A4B094A12685D
:1001A00022F0A0521A60074B4FF47F029A60054B71
:1001B0004FF00002DA6200F00BF8044B4FF00062DF
:1001C0009A6080BD001002400000FFF000ED00E0EA
:1001D00080B500AF00F002F880BD00BF80B483B0EE
:1001E00000AF4FF000037B604FF000033B60494BD2
:1001F000484A126842F480321A60464B1B6803F486
:1002000000333B607B6803F101037B603B68002B9C
:1002100003D17B68B3F5A06FEFD13E4B1B6803F4AD
:100220000033002B03D04FF001033B6002E04FF09E
:1002300000033B603B68012B67D1374B364A12689D
:1002400042F010021A60344B334A126822F0030263
:100250001A60314B304A126842F002021A602D4B8C
:100260002C4A52685A602B4B2A4A52685A60294BD2
:10027000284A526842F480625A60264A254BD96A5D
:10028000264B01EA0303D362224A224BDB6A43F482
:10029000823343F41173D3621E4B1E4A126842F03C
:1002A00080621A6000BF1B4B1B6803F00063002BC9
:1002B000F9D0184B174A526822F47C125A60154B39
:1002C000144A526842F4E8125A60124B114A1268FA
:1002D00042F080721A6000BF0E4B1B6803F000737F
:1002E000002BF9D00B4B0B4A526822F003025A60E4
:1002F000084B084A526842F002025A6000BF054BA0
:100300005B6803F00C03082BF9D107F10C07BD461D
:1003100080BC7047001002400020024000F0FEFF49
:1003200080B489B000AF786039604FF00003FB61A2
:100330004FF000033B614FF00003BB614FF000033F
:10034000FB604FF000037B614FF00003BB603B6834
:10035000DB7803F00F03FB613B68DB7803F01003ED
:10036000002B05D03B689B78FA6942EA0303FB61E6
:100370003B681B8803F0FF03002B51D07B681B6890
:100380007B614FF00003BB6144E0BB694FF00102A9
:1003900002FA03F3FB603B681B881A46FB6802EA1B
:1003A00003033B613A69FB689A422FD1BB694FEA6C
:1003B0008303FB60FB684FF00F0202FA03F3BB609C
:1003C000BB686FEA03037A6902EA03037B61FB6897
:1003D000FA6902FA03F37A6942EA03037B613B6834
:1003E000DB78282B07D1BB694FF0010202FA03F238
:1003F0007B685A610AE03B68DB78482B06D1BB6911
:100400004FF0010202FA03F27B681A61BB6903F143
:100410000103BB61BB69072BB7D97B687A691A6096
:100420003B681B88FF2B56D97B685B687B614FF06C
:100430000003BB6149E0BB6903F108034FF001020F
:1004400002FA03F3FB603B681B881A46FB6802EA6A
:1004500003033B613A69FB689A4232D1BB694FEAB8
:100460008303FB60FB684FF00F0202FA03F3BB60EB
:10047000BB686FEA03037A6902EA03037B61FB68E6
:10048000FA6902FA03F37A6942EA03037B613B6883
:10049000DB78282B08D1BB6903F108034FF0010278
:1004A00002FA03F27B685A613B68DB78482B08D17B
:1004B000BB6903F108034FF0010202FA03F27B6803
:1004C0001A61BB6903F10103BB61BB69072BB2D998
:1004D0007B687A695A6007F12407BD4680BC704783
:1004E00080B483B000AF786013460A467A807B7090
:1004F0007B78002B03D07A887B681A6102E07A88C7
:100500007B685A6107F10C07BD4680BC704700BF8D
:1005100080B483B000AF4FF000037B6003E07B68E2
:1005200003F101037B607B68B3F5805FF7D107F1CE
:100530000C07BD4680BC704780B588B000AF4FF057
:100540000003FB7744F214004FF0010100F090F932
:100550004FF400733B824FF00303BB744FF018035A
:10056000FB7407F1100342481946FFF7D9FE4FF418
:1005700080633B824FF00403FB7407F110033C4897
:100580001946FFF7CDFE4FF00303BB744FF0100385
:10059000FB744FF038033B8207F1100335481946CE
:1005A000FFF7BEFE4FF416533B604FF00003BB80D5
:1005B0004FF00003FB804FF000033B814FF00C0332
:1005C0007B814FF00003BB813B462B48194600F06E
:1005D000A9F929484FF0010100F07CFA254B254A82
:1005E000D26842F03802DA6000BF234B1B889BB20E
:1005F00003F02003002BF8D01E484FF020014FF0ED
:100600000002FFF76DFFBB7F1B4A928892B2D2B205
:1006100007F12001CB1803F80C2CFFF779FF1548E0
:100620004FF020014FF00102FFF75AFF00BF124BBD
:100630001B889BB203F04003002BF8D00D484FF00D
:1006400010014FF00002FFF74BFF0B4BFA7F07F151
:1006500020018A1812F80C2C9A80FFF759FF0548E0
:100660004FF010014FF00102FFF73AFF00BFBCE767
:1006700000080140001001400038014080B48BB0F8
:1006800000AF78604FF000033B624FF000037B62E5
:100690004FF00003FB614FF00003BB614FF000031C
:1006A0007B614FF000033B614FF00003FB604FF0B4
:1006B0000003BB60694B5B6803F00C033B623B6A61
:1006C000042B07D0082B09D0002B65D17B68644A26
:1006D0001A6065E07B68624A1A6061E05F4B5B68A4
:1006E00003F470137B625D4B5B6803F48033FB6142
:1006F0007B6A4FEA93437B627B6A0D2B04D07B6A53
:1007000003F102037B6202E04FF006037B62FB69A8
:10071000002B06D17B6A534A02FB03F27B681A6006
:100720003EE04E4BDB6A03F480337B614B4BDB6A6C
:1007300003F00F0303F101033B617B69002B09D137
:10074000474A3B69B2FBF3F37A6A02FB03F27B6828
:100750001A6025E0414BDB6A03F0F0034FEA131304
:1007600003F10103FB603D4BDB6A03F470634FEA66
:10077000132303F10203BB60394AFB68B2FBF3F3B6
:10078000BA6802FB03F23B69B2FBF3F37A6A02FB3D
:1007900003F27B681A6003E07B68314A1A6000BF8D
:1007A0002E4B5B6803F0F0033B623B6A4FEA131386
:1007B0003B622D4A3B6AD3181B78DBB2BB617B6876
:1007C0001A68BB6922FA03F27B685A60234B5B68A4
:1007D00003F4E0633B623B6A4FEA13233B62224A25
:1007E0003B6AD3181B78DBB2BB617B685A68BB6974
:1007F00022FA03F27B689A60184B5B6803F460533B
:100800003B623B6A4FEAD3233B62174A3B6AD318E9
:100810001B78DBB2BB617B685A68BB6922FA03F2C2
:100820007B68DA600D4B5B6803F440433B623B6AD4
:100830004FEA93333B620D4A3B6AD3181B78DBB215
:10084000BB617B68DA68BB69B2FBF3F27B681A6153
:1008500007F12C07BD4680BC704700BF0010024066
:1008600000127A0000093D00000000201000002066
:1008700080B483B000AF78600B46FB70FB78002B30
:1008800007D00B4B0A4A91697A6841EA02029A61E1
:1008900008E0074B064A91697A686FEA020201EAAA
:1008A00002029A6107F10C07BD4680BC704700BF89
:1008B0000010024080B582B000AF134B7B60134B39
:1008C0003B600BE07B681A683B681A603B6803F189
:1008D00004033B607B6803F104037B603A680C4BC4
:1008E0009A42EFD30B480C494FF000028842B8BF40
:1008F00040F8042BFADBFFF72DFCFFF71DFE07F194
:100900000807BD4680BD00BF140B00080000002092
:1009100014000020140000201400002080B400AF58
:10092000FEE700BF80B58CB000AF786039604FF053
:100930000003FB624FF00003BB624FF000037B62D9
:100940004FF000033B624FF00003FB617B68FB61EB
:100950007B681B8A9BB2FB62FA6A4CF6FF7302EA61
:100960000303FB623B68DB88FA6A42EA0303FB622B
:10097000FB6A9AB27B681A827B689B899BB2FB6296
:10098000FA6A4EF6F31302EA0303FB623B689A88A5
:100990003B681B8942EA03039AB23B685B8942EADF
:1009A00003039BB2FA6A42EA0303FB62FB6A9AB250
:1009B0007B689A817B689B8A9BB2FB62FA6A4FF6DE
:1009C000FF4302EA0303FB623B689B89FA6A42EA3F
:1009D0000303FB62FB6A9AB27B689A8207F1080301
:1009E0001846FFF74BFEFA69384B9A4202D17B69F1
:1009F000BB6201E03B69BB627B689B899BB29BB297
:100A00001BB2002B0FDABA6A13464FEA83039B1816
:100A10004FEA83029A183B681B684FEA4303B2FB14
:100A2000F3F37B620EE0BA6A13464FEA83039B1826
:100A30004FEA83029A183B681B684FEA8303B2FBB4
:100A4000F3F37B627A6A224BA3FB02134FEA531340
:100A50004FEA0313FB62FB6A4FEA13134FF0640281
:100A600002FB03F37A6AD31A3B627B689B899BB2D1
:100A70009BB21BB2002B10DA3B6A4FEAC30303F1AF
:100A80003202134BA3FB02134FEA531303F0070385
:100A9000FA6A42EA0303FB620FE03B6A4FEA031380
:100AA00003F132020A4BA3FB02134FEA531303F084
:100AB0000F03FA6A42EA0303FB62FB6A9AB27B689D
:100AC0001A8107F13007BD4680BD00BF00380140E4
:100AD0001F85EB5180B483B000AF78600B46FB708C
:100AE000FB78002B08D07B689B899BB243F40053B2
:100AF0009AB27B689A8107E07B689B899BB223F45A
:100B000000539AB27B689A8107F10C07BD4680BCFE
:040B1000704700BF6B
:100B1400000000000102030401020304060708099F
:040B240002040608B9
:0400000508000000EF
:00000001FF
