:020000040800F2
:10000000FC030020C10300080D0400080D040008D3
:100010000D0400080D0400080D0400080000000095
:100020000000000000000000000000000D040008B7
:100030000D040008000000000D0400080D04000875
:100040000D0400080D0400080D0400080D0400084C
:100050000D0400080D0400080D0400080D0400083C
:100060000D0400080D0400080D0400080D0400082C
:100070000D0400080D0400080D0400080D0400081C
:100080000D0400080D0400080D0400080D0400080C
:100090000D0400080D0400080D0400080D040008FC
:1000A0000D0400080D0400080D0400080D040008EC
:1000B0000D0400080D0400080D0400080D040008DC
:1000C0000D0400080D0400080D0400080D040008CC
:1000D0000D0400080D0400080D0400080D040008BC
:1000E0000D0400080D0400080D04000800000000C5
:1000F0000000000000000000000000000000000000
:1001000000000000000000000D0400080D040008BD
:100110000D0400080D0400080D0400080D0400087B
:100120000D0400080D0400080D0400080D0400086B
:100130000D0400080D0400080D0400080D0400085B
:100140000D0400080D0400080D0400080D0400084B
:100150005FF808F182B04A4B1A6842F001021A6057
:100160005968484A01EA02025A601A6822F0847209
:1001700022F480321A601A6822F480221A605A68C7
:1001800022F4FE025A601A6822F0A0521A604FF45C
:100190007F029A604FF00002DA62019200921A68C0
:1001A00042F480321A601A46136803F40033009355
:1001B000019B03F101030193009B1BB9019BB3F564
:1001C000A06FF1D12E4B1B6813F4003F14BF012325
:1001D00000230093009B012B4BD12B4B1A6842F05C
:1001E00010021A601A6822F003021A601A6842F0BC
:1001F00002021A60A3F580535A685A605A685A601E
:100200005A6842F480625A60D96A204A01EA0202BE
:10021000DA62DA6A42F4823242F41172DA621A68FD
:1002200042F080621A601A46136813F0006FFBD028
:10023000134B5A6822F47C125A605A6842F4E8124E
:100240005A601A6842F080721A601A46136813F0F6
:10025000007FFBD00A4B5A6822F003025A605A68AA
:1002600042F002025A601A46536803F00C03082B4E
:10027000FAD14FF00062064B9A6002B0704700BF9F
:10028000001002400000FFF00020024000F0FEFFDE
:1002900000ED00E02DE9F003CB7803F00F0513F03B
:1002A000100F1CBF8B781D430B7833B3D0F800C000
:1002B0004FF000034FF001064FF00F0806FA03F26B
:1002C0000C8802EA0404944211D14FEA830708FA29
:1002D00007F92CEA090C05FA07F74CEA070CCF7866
:1002E000282F01D1446102E0482F08BF026103F1C9
:1002F0000103082BE2D1C0F800C00B88FF2B28D9DE
:10030000D0F804C04FF000034FF001064FF00F0883
:1003100003F1080206FA02F20C8802EA040494428D
:1003200011D14FEA830708FA07F92CEA090C05FAFC
:1003300007F74CEA070CCF78282F08BF4461CC7828
:10034000482C08BF026103F10103082BE0D1C0F87B
:1003500004C0BDE8F003704700B583B04FF014004F
:100360004FF0010100F01EF84FF01003ADF804301B
:100370008DF807304FF003038DF80630024801A9CD
:10038000FFF788FF03B000BD0008014008B5FFF784
:10039000E3FF034A4FF0100353611361FCE700BF12
:1003A0000008014021B1054B9A69104398617047DC
:1003B000024B9A6922EA00009861704700100240DF
:1003C00008B50D4B0D4A9A4208D20D4A0B4B0A480C
:1003D00052F8041B43F8041B8342F9D309480A4925
:1003E0004FF000028842B8BF40F8042BFADBFFF759
:1003F000B1FEFFF7CBFF08BD000000200000002089
:10040000100400080000002000000020FEE700BFEC
:0400000508000000EF
:00000001FF
