:020000040800F2
:1000000088060020F1010008F9010008FB01000842
:10001000FD010008FF0100080102000800000000C7
:1000200000000000000000000000000003020008C3
:10003000050200080000000007020008090200088D
:100040000B0200080B0200080B0200080B0200085C
:100050000B0200080B0200080B0200080B0200084C
:100060000B0200080B0200080B0200080B0200083C
:100070000B0200080B0200080B0200080B0200082C
:100080000B0200080B0200080B0200080B0200081C
:100090000B0200080B0200080B0200080B0200080C
:1000A0000B0200080B0200080B0200080B020008FC
:1000B0000B0200080B0200080B0200080B020008EC
:1000C0000B0200080B0200080B0200080B020008DC
:1000D0000B0200080B0200080B0200080B020008CC
:1000E0000B0200080B0200080B02000800000000D1
:1000F0000000000000000000000000000000000000
:1001000000000000000000000B0200080B020008C5
:100110000B0200080B0200080B0200080B0200088B
:100120000B0200080B0200080B0200080B0200087B
:100130000B0200080B0200080B0200080B0200086B
:100140000B0200080B0200080B0200080B0200085B
:1001500000F002F800F03CF80AA090E8000C82449D
:100160008344AAF10107DA4501D100F031F8AFF27A
:10017000090EBAE80F0013F0010F18BFFB1A43F085
:10018000010318476009000080090000103A24BFED
:1001900078C878C1FAD8520724BF30C830C144BFEC
:1001A00004680C607047000000230024002500262E
:1001B000103A28BF78C1FBD8520728BF30C148BFCA
:1001C0000B6070471FB500F086FC1FBD10B510BD59
:1001D00000F047FC1146FFF7F5FF00F041F800F092
:1001E00065FC03B4FFF7F2FF03BC00F06DFC0000F8
:1001F0000948804709480047FEE7FEE7FEE7FEE7BB
:10020000FEE7FEE7FEE7FEE7FEE7FEE704480549F6
:10021000054A064B704700005D09000851010008BF
:100220008800002088060020880200208802002024
:1002300008B50121102000F0DBFA03208DF8020040
:1002400010208DF803003820ADF8000069462248E0
:1002500000F09DF808BD00E0401E0028FCD170476A
:10026000FFF7E6FF1C4E1D4C00220821304600F02F
:10027000FFF800222021304600F0FAF80122102178
:10028000304600F0F5F825466D1EFDD10022102104
:10029000304600F0EDF801220821304600F0E8F881
:1002A00000222021304600F0E3F82046401EFDD118
:1002B00000221021304600F0DBF8002208213046F1
:1002C00000F0D6F801222021304600F0D1F8204677
:1002D000401EFDD1C8E700000010014040420F0061
:1002E000904910B5884206D10121042000F09BFA04
:1002F000002104203BE08C49884206D101210820DE
:1003000000F091FA0021082031E08849884206D1A6
:100310000121102000F087FA0021102027E08449F5
:10032000884206D10121202000F07DFA0021202002
:100330001DE08049884206D10121402000F073FA77
:100340000021402013E07C49884206D10121802011
:1003500000F069FA0021802009E0784988420AD13A
:1003600084150121204600F05EFA00212046BDE8F8
:10037000104000F058BA10BD10B50121084600F039
:1003800052FA0021BDE81040012000F04CBA2DE9DE
:10039000F041CB78002503F00F02DB0601D58B7806
:1003A0001A430B884FF00F0813F0FF0F4FF0010CAA
:1003B0001BD004680E880CFA05F31E409E4210D133
:1003C000AF0008FA07F624EA060602FA07F43443F7
:1003D000CE78282E02D0482E02D002E0436100E001
:1003E00003616D1C082DE5D304600B88FF2B1DD91C
:1003F0004468002505F108060CFA06F30E881E4035
:100400009E420FD1AF0008FA07F624EA060602FA68
:1004100007F43443CE78282E00D14361CE78482E9D
:1004200000D103616D1C082DE4D34460BDE8F08168
:100430004FF6FF710180022181700421C170704765
:100440000246002092680A4200D00120704780686E
:1004500080B2704702460020D2680A4200D00120D4
:100460007047C06880B27047016170474161704752
:100470000AB10161704741617047C160704741F442
:1004800080328261816182618169806970472C4B11
:1004900010B51A684FF68074224042EA00100843F3
:1004A000186010BD2749C8617047F0B5244C00287A
:1004B00001DAE36900E06368420D120185B2C0F31E
:1004C00001579540C0F30346032F05D0C2020AD559
:1004D0000322B240934307E023F07062636823F085
:1004E0007063636002E0AB4343F0706201B12A4382
:1004F000002801DAE261F0BD6260F0BD10B58A0744
:1005000021F003040E49130F21440F228C689A40F6
:1005100094438C608A68984002438A6010BD0A49FF
:100520000860704700080140000C014000100140C5
:100530000014014000180140001C0140002001404F
:100540000000014000002042DC002042CC4801684D
:1005500041F0010101604168CA4A114041600168EF
:10056000C94A11400160016821F48021016041689D
:1005700021F4FE014160016821F0A05101604FF4B7
:100580007F0181600021C1627047BD490A6822F481
:1005900080320A600A6822F480220A60B0F5803F47
:1005A00007D0B0F5802F03D1086840F4A020086080
:1005B0007047086840F48030F9E70246002053098C
:1005C000AF49012B0AD0022B0AD0496A02F01F0260
:1005D000012393400B4200D0012070470968F5E7E2
:1005E000096AF3E730B500244FF4A0653120FFF726
:1005F000E4FF641CAC4201D00028F7D03120FFF7A3
:10060000DCFF002800D0012030BD9D490A6822F09F
:10061000F80242EAC000086070479C4908607047D1
:10062000974A5368084323F4741318435060704783
:10063000964908667047924B10B5DA6A944C0843A5
:1006400022401043D86210BD8D4AD16A21F0F001DA
:100650000143D16270478A4AD16A21F47061014333
:10066000D1627047894988667047854AD16A21F40A
:1006700070410143D1627047844908677047804ADE
:10068000516821F003010143516070477C48406884
:1006900000F00C0070477A4A516821F0F0010143E4
:1006A00051607047764A516821F4E061014351601E
:1006B000704773494A6822F4605242EAC0004860B9
:1006C00070476F4A0029517A01D0014300E081430D
:1006D000517270476F4908607047694A516821F448
:1006E00040410143516070476B49086070476A4957
:1006F000091D08607047694900220A7001F8202925
:10070000012802D0042802D1052081F8200070477A
:100710006349086070475A490A6A02430A6270478F
:100720005F4944390860704770B555494A685D4B68
:1007300012F00C0204D05C4D042A03D0082A03D026
:10074000036029E0056027E04A684B6802F47012F4
:10075000920C03F480330D2A01D0921C00E0062293
:10076000BBB1CB6ACC6A13F4803F04F00F0404F1F0
:1007700001040AD0CB6AC3F30316CB6A761CB5FB1F
:10078000F6F5C3F303239B1C5D43B5FBF4F353431E
:10079000D6E7464B5A4302604A68454B02F0F002E6
:1007A00012099C5C0268E24042604C6804F4E06418
:1007B000240A1C5D22FA04F484604C6804F460543A
:1007C000E40A1B5DDA40C2604968394B01F44041DC
:1007D000890B1B1F595CB2FBF1F1016170BD284A06
:1007E0000029516901D0014300E081435161704704
:1007F000234A0029916901D0014300E081439161BE
:1008000070471F4A0029D16901D0014300E08143AC
:10081000D16170471A4A0029916A01D0014300E072
:10082000814391627047164A0029D16801D0014383
:1008300000E08143D1607047114A0029116901D05D
:10084000014300E081431161704715494039086058
:1008500070470E49C86470470949C8717047084815
:10086000416A41F0807141627047054A01460020AB
:1008700092680A4200D0012070470149887270478F
:10088000001002400000FFF0FFFFF6FE00004242B1
:10089000F0FFFEFFD8004242C40542422010024051
:1008A0008004424200127A0040787D0100093D0038
:1008B000040000205E480021026842F48032026099
:1008C0004FF4A063026801F1010112F4003F01D16D
:1008D0009942F7D1016889033FD556490A6842F029
:1008E00010020A600A6822F003020A600A6842F0F5
:1008F00002020A604168416041684160416841F418
:1009000080614160C16A4C4A1140C162C16A4B4A70
:100910001143C162016841F0806101600168090111
:10092000FCD5416821F47C114160416841F4E81133
:100930004160016841F08071016001688901FCD566
:10094000416821F003014160416841F002014160CA
:100950004168C1F381010229FAD17047344810B5CA
:10096000016841F0010101604168354A1140416070
:100970000168344A11400160016821F4802101605E
:10098000416821F4FE014160016821F0A05101603D
:100990004FF47F0181600021C162FFF78BFF2A497C
:1009A0004FF00060086010BD70B521484168274BCA
:1009B00011F00C02264904D0264C042A03D0082A40
:1009C00003D00B6029E00C6027E04268436802F422
:1009D0007012920C03F480330D2A01D0921C00E0B7
:1009E0000622BBB1C36A13F4803FC36A03F00F034E
:1009F00003F101030AD0C56AC66AC5F303156D1C6D
:100A0000B4FBF5F4C6F30326B61C7443B4FBF3F34E
:100A10005343D6E7104B5A430A6040680C4AC0F370
:100A20000310121D105C0A68C2400A6070BD00000D
:100A3000001002400020024000F0FEFF44060100CA
:100A40000000FFF0FFFFF6FE08ED00E000127A0064
:100A50001400002040787D0100093D007047704778
:100A60007047754600F028F8AE46050069465346C3
:100A700020F00700854618B020B5FFF7C7FBBDE89A
:100A800020404FF000064FF000074FF000084FF0F5
:100A9000000B21F00701AC46ACE8C009ACE8C00986
:100AA000ACE8C009ACE8C0098D4670470446AFF316
:100AB00000802046FFF795FB004870472800002083
:100AC000004870472C00002001491820ABBEFEE70B
:100AD00026000200704710B5FFF7F2FF4FF000014B
:100AE000016010BD040B0008000000202800000079
:100AF0008C0100082C0B0008280000206006000074
:100B0000A801000802040608000000000102030416
:100B1000010203040607080900A24A0400000000BD
:0C0B2000000000000102030406070809A1
:04000005080001519D
:00000001FF
